:020000040800F2
:1000000008040020450100084D0100084F010008C8
:1000100051010008530100085501000800000000CC
:100020000000000000000000000000005701000870
:1000300059010008000000005B0100085D01000894
:100040005F0100085F0100085F0100085F01000810
:100050005F0100085F0100085F0100085F01000800
:100060005F0100085F0100085F0100085F010008F0
:100070005F0100085F0100085F0100085F010008E0
:100080005F0100085F0100085F0100085F010008D0
:100090005F0100085F0100085F0100085F010008C0
:1000A0005F0100085F0100085F0100085F010008B0
:1000B0005F0100085F0100085F0100085F010008A0
:1000C0005F0100085F0100085F0100085F01000890
:1000D0005F0100085F0100085F0100085F01000880
:1000E000610400085F0100085F0100085F0100086B
:1000F0005F0100085F0100085F0100085F01000860
:100100005F0100085F0100085F0100085F0100084F
:100110005F0100085F0100085F0100085F0100083F
:100120005F0100085F0100085F0100085F0100082F
:10013000DFF80CD000F036F800480047110900083D
:10014000080400200648804706480047FEE7FEE70F
:10015000FEE7FEE7FEE7FEE7FEE7FEE7FEE7FEE777
:10016000B905000831010008421C10F8011B0029E4
:10017000FBD1801A704730B50B4601460020202283
:10018000012409E021FA02F59D4205D303FA02F5A4
:10019000491B04FA02F52844151EA2F10102F1DC04
:1001A00030BD0000064C074D06E0E06840F001035A
:1001B00094E8070098471034AC42F6D3FFF7BCFF31
:1001C00070090008900900081948006840F0010013
:1001D00017490860081D006820F00100091D08602B
:1001E00013480C30006840F0010011490C310860E0
:1001F0000F481430006820F001000D4914310860E8
:100200004FF05C600A4940310860002108484430E2
:10021000016007481C30006840F0010004491C31AF
:1002200008600348006820F0010001490860704739
:100230000066004010B54248C06940F00070404977
:10024000C8610846806940F0090088613D48C0697E
:1002500040F480403B49C8610846C06920F4005022
:10026000C8613948006820F00F0037490860084627
:10027000006840F0040008600846006840F0F000A4
:1002800008600846006820F0400008602F480068B9
:1002900040F001002D49086000BF2C48001D006897
:1002A00000F001000028F8D02848006820F0020083
:1002B0002649086000BF2548001D006800F00200C4
:1002C0000028F8D12148006840F040001F4908602C
:1002D0000846006840F0200008601C481C30006898
:1002E0006FF3090019491C3108600846006840F0A6
:1002F000230008600846006820F4FE0008600846F5
:10030000006840F4A40008600846006820F04070CF
:1003100008600846006840F0807008600B4800687C
:1003200020F001000949086000BF0848001D00686E
:1003300000F001000028F8D1FFF746FF10BD0000D3
:100340000010024000000140040C01400064004025
:1003500030B5034600BF2C48006800F080600028DC
:10036000F9D02A480068C0F31400284C20602046C9
:10037000006840EA435020602046006820F00400F6
:1003800020602046006820F002002060201D0068E8
:1003900020F00F041D48001D0460006810431B4C32
:1003A000241D20600024194808300460001D0460EA
:1003B000002019E004280ADA0C5CC500AC40134D9B
:1003C00008352D682C43114D08352C600AE00C5C73
:1003D000051FED00AC400D4D0C352D682C430B4D29
:1003E0000C352C60441CE0B29042E3DB0748006807
:1003F00040F00100054C206000BF0348006800F099
:1004000002000028F9D030BD08640040806500403B
:1004100000B5034603E04FF47A7000F006F8181EAA
:10042000A3F101018BB2F6D100BD00EBC001C90000
:100430004FF0E0225161002191610521116100BF5F
:100440004FF0E021096901F480310029F8D04FF024
:10045000E021096921F001014FF0E02211617047AC
:1004600010B50948006840F48060074908600F2013
:10047000FFF7CEFF0548006800F4806010B101204E
:1004800000F016F810BD000014040140081C0140E3
:10049000024909680143014A116070470C08014094
:1004A000024909688143014A116070470C08014004
:1004B00000B5034605480068184018B91846FFF70C
:1004C000E7FF02E01846FFF7EBFF00BD0808014018
:1004D00010B500F001F810BD0CB50020019000909F
:1004E0003348006840F480303149086000BF30482C
:1004F000006800F4003000900198401C01900098C2
:1005000018B90198B0F5A06FF1D12948006800F43E
:10051000003010B10120009001E000200090009810
:10052000012843D12348006840F0100021490860A9
:100530000846006820F0070008600846006840F0A0
:10054000020008601A484068194948600846406837
:1005500048600846406840F480604860084640684B
:1005600020F47C1048600846406840F4E810486079
:100570000846006840F08070086000BF0C480068C2
:1005800000F000700028F9D00948406820F003000E
:10059000074948600846406840F00200486000BFD4
:1005A0000348406800F00C000828F9D10CBD000099
:1005B000001002400020024010B51348006840F0CF
:1005C00001001149086008464068104908400E497A
:1005D0004860084600680E4908400B490860084614
:1005E000006820F4802008600846406820F4FE007F
:1005F00048604FF41F008860FFF76AFF4FF000600B
:100600000449086010BD0000001002400000FFF81F
:10061000FFFFF6FE08ED00E02448806940F48040CA
:10062000224988610846806940F0040088612048BA
:10063000006840F030001E4908600846006840F03D
:10064000800008600846006820F040000860084606
:10065000006820F4407008600846006820F40060DC
:1006600008600846006840F48060086040F271202D
:1006700010490880081D008840F40050091D0880BA
:100680000846008840F00C0008800846008820F4E6
:10069000805008800846008820F480600880081D8B
:1006A000008820F44050091D088070470010024067
:1006B000040801400838014000BF0549098801F0DD
:1006C00080010029F9D00249091D08807047000007
:1006D000003801400FB4054B10B503A9044A029835
:1006E00000F02CF810BC5DF814FB0000FF080008B7
:1006F000000000200FB4084B10B504A902AA03980B
:1007000000F01CF8044602A9002000F0F3F820468F
:1007100010BC5DF814FB0000F508000802E008C8F2
:10072000121F08C1002AFAD170477047002001E06B
:1007300001C1121F002AFBD1704700002DE9FF4FB5
:100740008BB09A460F460546002606E025280BD0BA
:1007500052460D9990476D1C761C28780028F5D1DB
:100760000FB03046BDE8F08F0024A046012260495A
:1007700000E0044315F8013F203B02FA03F0084271
:10078000F7D128782E2817D115F8010F44F004046A
:100790002A280ED06FF02F022878A0F13001092905
:1007A0000AD808EB880102EB410100EB01086D1C3F
:1007B000F2E757F8048B6D1C287869283ED006DCD8
:1007C0000028CDD063280BD0642804D136E07328EC
:1007D00010D075284BD052460D999047761C85E075
:1007E00017F8040B8DF8000000208DF80100E94691
:1007F000012003E057F8049B4FF0FF3061074FF0F2
:10080000000401D40AE0641C44450DDA8442FADB9A
:1008100019F804100029F6D106E0641C8442FCDBC0
:1008200019F804100029F8D1264404E019F8010B46
:1008300052460D999047641EF8D257E001CF4FF011
:100840000A0B002802DA40422D2102E0210504D5DE
:100850002B218DF82410012103E0E10705D0202190
:10086000F7E70DF1200908910CE00021F9E701CF2D
:100870004FF00A0BF9E75946FFF77DFC01F1300212
:1008800009F8012D0028F6D1ADEB090000F1200B8D
:10089000600701D44FF00108D84502DDA8EB0B003A
:1008A00000E000208046002406E009A85246005DD2
:1008B0000D999047641C761C08988442F5DB04E08F
:1008C000302052460D999047761CB8F10001A8F1EE
:1008D0000108F5DC05E019F8010B52460D99904727
:1008E000761CBBF10001ABF1010BF4DC6D1C34E7AD
:1008F000092801000A68531C0B601070704700B58E
:1009000002460B46D0B2FFF7D7FE104600BD0000EE
:100910000EB5FFF781FEFFF78DFC0EA0FFF7DAFEA4
:10092000662510A4002613E0701C064603462246E6
:100930000DA16846FFF7DEFE2046FFF715FCC7B2A3
:100940003A4621462846FFF703FD6420FFF760FD85
:10095000EAE7000048656C6C6F20776F726C642169
:100960000A00000061626300257320256400000016
:100970009009000800000020040000001C07000887
:100980009409000804000020040400002C0700085B
:040990000000000063
:0400000508000131BD
:00000001FF
