:020000040800F2
:1000000008040020450100084D0100084F010008C8
:1000100051010008530100085501000800000000CC
:100020000000000000000000000000005701000870
:1000300059010008000000005B0100085D01000894
:100040005F0100085F0100085F0100085F01000810
:100050005F0100085F0100085F0100085F01000800
:100060005F0100085F0100085F0100085F010008F0
:100070005F0100085F0100085F0100085F010008E0
:100080005F0100085F0100085F0100085F010008D0
:100090005F0100085F0100085F0100085F010008C0
:1000A0005F0100085F0100085F0100085F010008B0
:1000B0005F0100085F0100085F0100085F010008A0
:1000C0005F0100085F0100085F0100085F01000890
:1000D0005F0100085F0100085F0100085F01000880
:1000E000750500085F0100085F0100085F01000856
:1000F0005F0100085F0100085F0100085F01000860
:100100005F0100085F0100085F0100085F0100084F
:100110005F0100085F0100085F0100085F0100083F
:100120005F0100085F0100085F0100085F0100082F
:10013000DFF80CD000F050F800480047F90A00083A
:10014000080400200648804706480047FEE7FEE70F
:10015000FEE7FEE7FEE7FEE7FEE7FEE7FEE7FEE777
:10016000CD06000831010008421C10F8011B0029CF
:10017000FBD1801A70472DE9F05F054600209246BA
:100180009B4688460646814640241BE02846414659
:100190004746224600F041F853465A46C01A91415C
:1001A00010D311461846224600F028F82D1A67EBA6
:1001B00001084F4622460120002100F01FF817EBEE
:1001C00000094E41201EA4F10104DFDC48463146FF
:1001D0002A464346BDE8F09F064C074D06E0E0681E
:1001E00040F0010394E8070098471034AC42F6D37E
:1001F000FFF7A2FFC80B0008E80B0008202A04DB69
:10020000203A00FA02F1002070479140C2F1200329
:1002100020FA03F3194390407047202A04DB203A68
:1002200021FA02F00021704721FA02F3D040C2F116
:1002300020029140084319467047000019480068A1
:1002400040F0010017490860081D006820F0010017
:10025000091D086013480C30006840F00100114986
:100260000C3108600F481430006820F001000D497F
:10027000143108604FF0FF300A4940310860002116
:1002800008484430016007481C30006840F0010015
:1002900004491C3108600348006820F0010001494E
:1002A000086070470066004010B54448C06940F0DF
:1002B00000704249C8610846806940F009008861C1
:1002C0003F48C06940F480403D49C8610846C06964
:1002D00020F40050C8613B48006820F00F00394905
:1002E00008600846006840F004000860084600689E
:1002F00040F0F00008600846006820F04000086008
:100300003148006840F001002F49086000BF2E48C6
:10031000001D006800F001000028F8D02A4800689D
:1003200020F002002849086000BF2748001D00682F
:1003300000F002000028F8D12348006840F0400097
:10034000214908600846006840F0200008601E4807
:100350001C30006840F040401B491C3108600846D2
:1003600000686FF3090008600846006840F0230049
:1003700008600846006820F4FE000860084600682F
:1003800040F4A40008600846006820F0407008604F
:100390000846006840F0807008600B48006820F054
:1003A00001000949086000BF0748001D006800F00F
:1003B00001000028F8D1FFF741FF10BD00100240F6
:1003C00000000140040C014000640040F0B5044608
:1003D0000A462248006800F003001070002338E04D
:1003E00003EB430004EB80011D48006840F2FF77F7
:1003F00007EA505008801A48001D006800F00F00FE
:100400008872174808300668001D0568002015E04E
:10041000042808DAC70026FA07F707F0FF0C8F1C3C
:1004200007F800C008E0071FFF0025FA07F707F0EC
:10043000FF0C8F1C07F800C0471CF8B28F7A874268
:10044000E6DC0648006840F02000044F3860581C85
:10045000C3B210789842C3DCF0BD00000C640040C9
:10046000B065004030B5034600BF2C48006800F07E
:1004700080600028F9D02A480068C0F31400284C96
:1004800020602046006840EA435020602046006813
:1004900020F0040020602046006820F00200206068
:1004A000201D006820F00F041D48001D0460006836
:1004B00010431B4C241D20600024194808300460A0
:1004C000001D0460002019E004280ADA0C5CC50055
:1004D000AC40134D08352D682C43114D08352C6068
:1004E0000AE00C5C051FED00AC400D4D0C352D688D
:1004F0002C430B4D0C352C60441CE0B29042E3DBE6
:100500000748006840F00100054C206000BF034828
:10051000006800F002000028F9D030BD08640040F7
:100520008065004000B5034603E04FF47A7000F0A8
:1005300006F8181EA3F101018BB2F6D100BD00EB45
:10054000C001C9004FF0E0225161002191610521F5
:10055000116100BF4FF0E021096901F480310029E9
:10056000F8D04FF0E021096921F001014FF0E022BD
:100570001161704710B50948006840F48060074970
:1005800008600F20FFF7CEFF0548006800F4806088
:1005900010B1012000F016F810BD00001404014055
:1005A000081C0140024909680143014A1160704773
:1005B0000C080140024909688143014A11607047F3
:1005C0000C08014000B5034605480068184018B9FA
:1005D0001846FFF7E7FF02E01846FFF7EBFF00BD04
:1005E0000808014010B500F001F810BD0CB500205E
:1005F000019000903348006840F480303149086031
:1006000000BF3048006800F4003000900198401CA2
:100610000190009818B90198B0F5A06FF1D1294860
:10062000006800F4003010B10120009001E00020CB
:1006300000900098012843D12348006840F0100042
:10064000214908600846006820F007000860084655
:10065000006840F0020008601A4840681949486084
:100660000846406848600846406840F4806048603A
:100670000846406820F47C1048600846406840F412
:10068000E81048600846006840F08070086000BFCD
:100690000C48006800F000700028F9D00948406854
:1006A00020F00300074948600846406840F0020017
:1006B000486000BF0348406800F00C000828F9D1EA
:1006C0000CBD0000001002400020024010B513488D
:1006D000006840F001001149086008464068104970
:1006E00008400E494860084600680E4908400B491A
:1006F00008600846006820F48020086008464068CA
:1007000020F4FE0048604FF41F008860FFF76AFF86
:100710004FF000600449086010BD00000010024066
:100720000000FFF8FFFFF6FE08ED00E024488069B6
:1007300040F48040224988610846806940F0040006
:1007400088612048006840F030001E490860084673
:10075000006840F0800008600846006820F0400013
:1007600008600846006820F4407008600846006889
:1007700020F4006008600846006840F4806008606B
:1007800040F2712010490880081D008840F4005094
:10079000091D08800846008840F00C0008800846C3
:1007A000008820F4805008800846008820F480608B
:1007B0000880081D008820F44050091D08807047FB
:1007C00000100240040801400838014000BF0549FC
:1007D000098801F080010029F9D00249091D08802B
:1007E00070470000003801400FB4054B10B503A955
:1007F000044A029800F018F810BC5DF814FB0000E1
:10080000E90A00080000002002E008C8121F08C121
:10081000002AFAD170477047002001E001C1121F81
:10082000002AFBD1704700002DE9FF4F8DB09B4699
:100830000F460446002606E025280BD05A460F999D
:100840009047641C761C20780028F5D111B0304602
:10085000BDE8F08F0025A8460122984900E0054335
:1008600014F8013F203B02FA03F00842F7D1207848
:100870002E2817D114F8010F45F004052A280ED0B0
:100880006FF02F022078A0F1300109290AD808EB77
:10089000880102EB410100EB0108641CF2E757F804
:1008A000048B641C20786C280DD004DC4C2812D0FA
:1008B0006A2811D104E074280DD07A280CD10AE0FE
:1008C00045F4001507E0617845F48015814202D1B6
:1008D000641C05F58015641C2278692A45D008DC63
:1008E000002AB3D0582A69D0632A10D0642A08D1CC
:1008F0003BE0702A67D0732A13D0752A5CD0782A1F
:100900005CD010465A460F999047761CD3E017F8F2
:10091000040B8DF8000000208DF80100E94601204D
:1009200003E057F8049B4FF0FF3069074FF00005D4
:1009300001D40AE06D1C45450DDA8542FADB19F851
:1009400005100029F6D106E06D1C8542FCDB19F884
:1009500005100029F8D12E4404E019F8010B5A467D
:100960000F9990476D1EF8D2A5E00A200021CDE92D
:100970000801C5F3025002280DD001CFC117031E94
:1009800071F100030DDA4FF0000CD0EB0C006CEBB2
:1009900001012D2308E0FF1D27F00707F7E80201FA
:1009A000EDE72B0504D52B238DF8283001233BE000
:1009B000EB0739D02023F7E70A2000E010200021C0
:1009C000CDE9080107E01020002145F00405CDE93C
:1009D00008014FF00808C5F3025002280FD001CFDC
:1009E00000214FF0000A2B071FD5702A0DD0DDE93A
:1009F00008C38CF0100C5CEA030C0CD015E0FF1D52
:100A000027F00707F7E80201EBE740228DF82820DE
:100A10004FF0010A0BE050EA010306D030238DF8B5
:100A200028308DF8292002239A46582A04D024A27F
:100A30000DF120090B9209E026A2F9E7DDE9082370
:100A4000FFF799FB0B9B9B5C09F8013D50EA010203
:100A5000F4D1ADEB090020300890680701D44FF0C5
:100A600001080899884502DDA8EB010000E000209C
:100A70008046002506E00AA85A46405D0F99904737
:100A80006D1C761C5545F6DB04E030205A460F9964
:100A90009047761CB8F10001A8F10108F5DC05E0EB
:100AA00019F8010B5A460F999047761C0899481E71
:100AB00008900029F4DC641CC5E600000928010048
:100AC00030313233343536373839616263646566C4
:100AD0000000000030313233343536373839414286
:100AE000434445460000000000B502460B46D0B224
:100AF000FFF76CFE104600BD8AB0FFF717FEFFF748
:100B0000D3FB22A0FFF770FE662624A52846FFF738
:100B10002BFBC4B2224629463046FFF7A3FC21A591
:100B20002846FFF721FBC4B2224629463046FFF78C
:100B300099FC40F223161CA52846FFF715FBC4B20A
:100B4000224629463046FFF78DFC694601A8FFF78B
:100B50003DFC002413E004EB440001AF07EB8000F0
:100B6000831C04EB440007EB8000827A04EB440012
:100B700037F820100DA0FFF737FE601CC4B29DF8B7
:100B800000008442E7DB00BFFEE7000048656C6CB4
:100B90006F20776F726C64210A00000061626364E9
:100BA000656667003132330078797A006964203DE8
:100BB000202523582C6C656E3D25642C646174617E
:100BC0003D25730A00000000E80B0008000000202B
:100BD0000400000008080008EC0B000804000020D6
:0C0BE000040400001808000800000000D9
:0400000508000131BD
:00000001FF
